:020000040800F2
:10000000280D00202D0200083502000837020008E4
:10001000390200083B0200083D0200080000000011
:100020000000000000000000000000003F02000887
:1000300041020008000000004302000845020008D9
:10004000470200084702000847020008470200086C
:10005000470200084702000847020008470200085C
:10006000470200084702000847020008470200084C
:10007000470200084702000847020008470200083C
:10008000470200084702000847020008470200082C
:10009000470200084702000847020008470200081C
:1000A000470200084702000847020008470200080C
:1000B00047020008470200084702000847020008FC
:1000C00047020008470200084702000847020008EC
:1000D00047020008470200084702000847020008DC
:1000E000470200084702000847020008000000001D
:1000F0000000000000000000000000000000000000
:10010000000000000000000047020008470200084D
:10011000470200084702000847020008470200089B
:10012000470200084702000847020008470200088B
:10013000470200084702000847020008470200087B
:10014000470200084702000847020008470200086B
:1001500000F002F800F05AF80AA090E8000C82447F
:100160008344AAF10107DA4501D100F04FF8AFF25C
:10017000090EBAE80F0013F0010F18BFFB1A43F085
:1001800001031847DC2F0000FC2F00000A444FF049
:10019000000C10F8013B13F0070408BF10F8014BE6
:1001A0001D1108BF10F8015B641E05D010F8016B2B
:1001B000641E01F8016BF9D113F0080F1EBF10F88F
:1001C000014BAD1C0C1B09D16D1E58BF01F801CBB2
:1001D000FAD505E014F8016B01F8016B6D1EF9D535
:1001E0009142D6D37047000000230024002500264A
:1001F000103A28BF78C1FBD8520728BF30C148BF8A
:100200000B6070471FB51FBD10B510BD00F044F85E
:100210001146FFF7F7FF01F0DFFC00F062F803B4CE
:10022000FFF7F2FF03BC00F063F8000009488047C5
:1002300009480047FEE7FEE7FEE7FEE7FEE7FEE7C8
:10024000FEE7FEE7FEE7FEE704480549054A064BE0
:10025000704700007D0E00085101000828070020AB
:10026000280D002028090020280900207047704729
:10027000704710B500F008F8006810BD10B50446CE
:1002800000F002F8046010BD00487047C40600206A
:1002900000487047C40600207546FFF7F9FFAE46D8
:1002A00005006946534620F00700854618B020B582
:1002B000FFF7CAFFBDE820404FF000064FF00007EF
:1002C0004FF000084FF0000B21F00701AC46ACE8FE
:1002D000C009ACE8C009ACE8C009ACE8C0098D466B
:1002E00070470446AFF300802046FFF798FF0000F8
:1002F00001491820ABBEFEE726000200704770B52A
:1003000004460D462A2000F011F8200A00F060F89B
:10031000E0B200F05DF82B2000F008F8280A00F0A9
:1003200057F8E8B200F054F870BD000010B504466C
:1003300022484068224908402049486008464068F1
:10034000204908431D494860002289141B4800F0D9
:1003500071F900224FF48061184800F06BF9002217
:100360004FF48071154800F065F90122910213489D
:1003700000F060F900224FF48061104800F05AF953
:100380000E4840680E4908400C49486008464068DD
:100390000D4908430949486021460C4800F0BDFC5E
:1003A00000BF8021094800F0AFFC0028F9D10122EC
:1003B0001102024800F03EF910BD0000001001409B
:1003C000FFF0F0FF00030300000B0B00003C0040B7
:1003D00010B5044622484068224908402049486038
:1003E00008464068204908431D4948600122891495
:1003F0001B4800F01FF900224FF48061184800F0FC
:1004000019F900224FF48071154800F013F9012208
:100410009102134800F00EF900224FF48061104859
:1004200000F008F90E4840680E4908400C49486041
:10043000084640680D4908430949486021460C4870
:1004400000F06BFC00BF8021094800F05DFC002833
:10045000F9D101221102024800F0ECF810BD0000B1
:1004600000100140FFF0F0FF00030300000B0B0041
:10047000003C004010B50446C4F30720FFF7A8FF76
:10048000E0B2FFF7A5FF10BD2DE9F04102460025BF
:100490000026002000230024002791F803C00CF060
:1004A0000F0591F803C00CF0100CBCF1000F03D045
:1004B00091F802C04CEA050591F800C0BCF1000FAC
:1004C00031D0146800202BE04FF0010C0CFA00F33F
:1004D000B1F800C00CEA03069E4220D183004FF021
:1004E0000F0C0CFA03F7BC4305FA03FC4CEA0404B6
:1004F00091F803C0BCF1280F06D14FF0010C0CFAA3
:1005000000FCC2F814C00AE091F803C0BCF1480F27
:1005100005D14FF0010C0CFA00FCC2F810C0401CD1
:100520000828D1D31460B1F800C0BCF1FF0F34DD4E
:10053000546800202EE000F1080C4FF0010808FA82
:100540000CF3B1F800C00CEA03069E4221D18300EF
:100550004FF00F0C0CFA03F7BC4305FA03FC4CEA0E
:10056000040491F803C0BCF1280F05D100F1080C78
:1005700008FA0CF8C2F8148091F803C0BCF1480FD7
:1005800007D100F1080C4FF0010808FA0CF8C2F886
:100590001080401C0828CED35460BDE8F0810000D4
:1005A000F0B50A46002300240021002500F0004693
:1005B000B6F1004F02D11D4EF16901E01B4E71688A
:1005C000C0F3034583B200F44016B6F5401F08D1CE
:1005D00021F07061154E766826F07066134F7E60CC
:1005E00012E000F48016B6F5801F06D1032606FA45
:1005F00005F4A14341F0706106E0460D360103FAAF
:1006000006F6B14341F0706122B1460D360103FA9E
:1006100006F6314300F00046B6F1004F02D1034E1A
:10062000F16101E0014E7160F0BD00000000014089
:10063000016170470AB1016100E04161704700004B
:1006400010B50E480E49086040F68F100D4908603D
:100650000D480E49086041F6E2200D4908600D483A
:100660000D4908600D480E4908600E480E490860A3
:1006700000F01CF800F0F6F810BD00009123060011
:100680009C060020A0060020AB0DF6F8A406002072
:10069000A806002097260800AC060020A9417EF895
:1006A000B0060020D2C75C009806002000B587B0D5
:1006B0000121302000F0D0FA4FF48070ADF8040032
:1006C00003208DF8060010208DF8070001A960486E
:1006D000FFF7DAFE8020ADF8040003208DF8060055
:1006E00010208DF8070001A95A48FFF7CDFE4FF4FE
:1006F0008060ADF8040003208DF8060010208DF80E
:10070000070001A95248FFF7BFFE4FF48050ADF833
:10071000040003208DF8060010208DF8070001A9C1
:100720004B48FFF7B1FE002280214A48FFF782FFC5
:1007300000224FF480714648FFF77CFF00224FF4FF
:1007400080614348FFF776FF00224FF48051404814
:10075000FFF770FF0121112000F07EFA01213E48D1
:10076000FFF71EFF0121C80300F056FA4FF4E050D6
:10077000ADF8040003208DF8060018208DF807005E
:1007800001A93348FFF780FE344800F091FA0020B9
:10079000ADF808004FF48270ADF80A000020ADF803
:1007A0000C00ADF80E00ADF810004FF40070ADF87D
:1007B00012000020ADF81400ADF8160002A9274879
:1007C00000F0ADFA0121254800F066FA0121402031
:1007D00000F042FA4020ADF8040003208DF8060036
:1007E00010208DF8070001A91D48FFF74DFE2020BD
:1007F000ADF8040003208DF8060010208DF80700E6
:1008000001A91748FFF740FE8020ADF8040003203F
:100810008DF8060010208DF8070001A91048FFF799
:1008200033FE0820ADF8040004208DF8070001A96C
:100830000B48FFF729FE1020ADF8040004208DF8C6
:10084000070001A90648FFF71FFE07B000BD000022
:10085000001001400014014000112000003C004045
:100860000018014010B50120FFF760FDB248B34900
:10087000086004E0B1480068401EB0490860AF4815
:1008800000680028F6D12820FFF750FDCF20FFF7A1
:100890004DFD0020FFF79CFD8320FFF799FD3020E0
:1008A000FFF796FDED20FFF741FD6420FFF790FD77
:1008B0000320FFF78DFD1220FFF78AFD8120FFF74F
:1008C00087FDE820FFF732FD8520FFF781FD01203D
:1008D000FFF77EFD7920FFF77BFDCB20FFF726FD9C
:1008E0003920FFF775FD2C20FFF772FD0020FFF780
:1008F0006FFD3420FFF76CFD0220FFF769FDF72044
:10090000FFF714FD2020FFF763FDEA20FFF70EFD3F
:100910000020FFF75DFD0020FFF75AFDC020FFF724
:1009200005FD2620FFF754FDC120FFF7FFFC112035
:10093000FFF74EFDC520FFF7F9FC3520FFF748FD16
:100940003E20FFF745FDC720FFF7F0FCBE20FFF774
:100950003FFD3620FFF7EAFC4820FFF739FD3A203B
:10096000FFF7E4FC5520FFF733FDB120FFF7DEFC75
:100970000020FFF72DFD1B20FFF72AFDF220FFF7D7
:10098000D5FC0820FFF724FD2620FFF7CFFC01202F
:10099000FFF71EFDE020FFF7C9FC1F20FFF718FD41
:1009A0001A20FFF715FD1820FFF712FD0A20FFF7A8
:1009B0000FFD0F20FFF70CFD0620FFF709FD452076
:1009C000FFF706FD8720FFF703FD3220FFF700FD4C
:1009D0000A20FFF7FDFC0720FFF7FAFC0220FFF7D3
:1009E000F7FC0720FFF7F4FC0520FFF7F1FC0020DF
:1009F000FFF7EEFCE120FFF799FC0020FFF7E8FC91
:100A00002520FFF7E5FC2720FFF7E2FC0520FFF794
:100A1000DFFC1020FFF7DCFC0920FFF7D9FC3A20AF
:100A2000FFF7D6FC7820FFF7D3FC4D20FFF7D0FC72
:100A30000520FFF7CDFC1820FFF7CAFC0D20FFF7BB
:100A4000C7FC3820FFF7C4FC3A20FFF7C1FC1F2089
:100A5000FFF7BEFC2A20FFF769FC0020FFF7B8FC77
:100A60000020FFF7B5FC0020FFF7B2FCEF20FFF7F6
:100A7000AFFC2B20FFF75AFC0020FFF7A9FC002059
:100A8000FFF7A6FC0120FFF7A3FC3F20FFF7A0FC27
:100A9000B720FFF74BFC0720FFF79AFCB620FFF7C3
:100AA00045FC0A20FFF794FC8220FFF791FC2720E9
:100AB000FFF78EFC0020FFF78BFC1120FFF736FCC0
:100AC0001F481E49086004E01C480068401E1B497E
:100AD00008601A4800680028F6D12C20FFF726FC91
:100AE000002403E00020FFF7C5FC641CB4F5963F2A
:100AF000F8D32920FFF71AFC11481049086004E0D8
:100B00000E480068401E0D4908600C480068002827
:100B1000F6D180210B48FFF78BFD0B480749086091
:100B200004E006480068401E044908600348006865
:100B30000028F6D110BD0000C0D40100BC06002082
:100B4000804F120000140140005307002DE9FF4FB1
:100B500089B081468A460B98A0EB09040C98A0EB5B
:100B60000A05204601F0F5FC0790284601F0F1FC4B
:100B70000690002C00DA6442002D00DA6D42AC428F
:100B80000CDDDDF81CB000200590DDF81CB0CDF8C0
:100B900010B0069803900295264609E04FF0000B2E
:100BA00006980590079804900698039002942E46A4
:100BB0004F46D046304606EBD0714910019108F1FE
:100BC000A00107F16400169A01F078FC002008905B
:100BD0001BE0DDE90101401A01900198002807DAC5
:100BE000019830440190049807440398804402E03F
:100BF0005F440598804408F1A00107F16400169A4B
:100C000001F05CFC0898401C08900898B042E0DBBA
:100C10000DB0BDE8F08F000029B1064AD269024349
:100C2000044BDA6104E0034AD2698243014BDA6182
:100C3000704700000010024029B1064A12690243C1
:100C4000044B1A6104E0034A12698243014B1A61A2
:100C5000704700000010024029B1064A9269024321
:100C6000044B9A6104E0034A92698243014B9A6102
:100C7000704700000010024029B1064AD2680243C2
:100C8000044BDA6004E0034AD2688243014BDA6025
:100C9000704700000010024021B1028842F040027B
:100CA000028004E002884FF6BF731A40028070474A
:100CB00010B504461148844208D101218014FFF781
:100CC000DBFF0021A014FFF7D7FF16E00C48844299
:100CD00008D101210014FFF7AFFF00212014FFF716
:100CE000ABFF0AE00748844207D10121C013FFF798
:100CF000A3FF0021E013FFF79FFF10BD003001406C
:100D000000380040003C00400246002013890B40A0
:100D10000BB1012000E0002070478181704710B5C1
:100D20000022028802F441520B884C8823438C88AD
:100D30002343CC8823430C8923434C8923438C8948
:100D40002343CC8923431A430280838B4FF2FF74E1
:100D5000234083830B8A038210BD10B500F002F894
:100D600010BD00000CB50020019000903F480068C5
:100D700040F480303D49086000BF3C48006800F402
:100D8000003000900198401C0190009818B901981B
:100D9000B0F5A06FF1D13548006800F4003010B113
:100DA0000120009001E000200090009801285CD113
:100DB0002F48006840F010002D4908600846006880
:100DC00020F0030008600846006840F00200086058
:100DD00026484068254948600846406848600846FB
:100DE000406840F4806048600846C06A2149084075
:100DF0001E49C8620846C06A1F4908431B49C862A9
:100E00000846006840F08060086000BF174800682E
:100E100000F000600028F9D01448406820F47C10ED
:100E2000124948600846406840F4E81048600846A7
:100E3000006840F08070086000BF0C48006800F057
:100E400000700028F9D00948406820F003000749E5
:100E500048600846406840F00200486000BF034810
:100E6000406800F00C000828F9D10CBD00100240C9
:100E70000020024000F0FEFF4406010010B51648B5
:100E8000006840F0010014490860084640681349B2
:100E900008401149486008460068114908400E4959
:100EA00008600846006820F4802008600846406812
:100EB00020F4FE0048600846006820F0A05008605A
:100EC0004FF47F0088600020C862FFF746FF4FF0B4
:100ED00000600449086010BD001002400000FFF0EF
:100EE000FFFFF6FE08ED00E02DE9FF5F8EB04FF04A
:100EF000000ADDE91C01CDE90A01DDE91001CDE9B7
:100F00000801DDE90E894FF0010BA5E24046494694
:100F100001F026FBCDE90201F8490AF1020001EBDC
:100F2000C00003C8CDE90001DDE9022301F01AFE8B
:100F3000CDE906014046494600F0E8FDCDE9020151
:100F4000EE490AF1010001EBC00103C9CDE900013E
:100F5000DDE9022301F006FECDE90401DDE9062307
:100F600001F00AFF06460F464046494600F0CEFD16
:100F7000CDE90201E1490AF1020001EBC00003C81A
:100F8000CDE90001DDE9022301F0ECFDCDE9060128
:100F90004046494601F0E4FACDE90201D7490AF199
:100FA000010001EBC00003C8CDE90001DDE9022327
:100FB00001F0D8FDCDE90401DDE9062301F028FBAD
:100FC000CDE90C01CD490AF1010001EBC002C0C21C
:100FD000CA4B0AF1020203EBC202DDE90C0103C2B3
:100FE0004046494601F0BCFACDE90201C3490AF185
:100FF000020001EBC00003C8CDE90001DDE90223D6
:1010000001F0B0FDCDE90601DDE9080100F07EFD4B
:10101000CDE90201B94800EBCA0003C8CDE90001DF
:10102000DDE9022301F09EFDCDE90401DDE906239F
:1010300001F0A2FE04460D464046494600F066FD1A
:10104000CDE90201AD490AF1020001EBC00003C87D
:10105000CDE90001DDE9022301F084FDCDE90601BF
:10106000DDE9080101F07CFACDE90201A34800EBBB
:10107000CA0003C8CDE90001DDE9022301F072FDD9
:10108000CDE90401DDE9062301F0C2FACDE90C0146
:101090009A4800EBCA0230C2984B0AF1020203EBF5
:1010A000C202DDE90C10C2E90010DDE90A0101F01D
:1010B00057FACDE9020191490AF1010001EBC000A4
:1010C00003C8CDE90001DDE9022301F04BFDCDE9C4
:1010D0000601DDE90A0100F019FDCDE902018748AA
:1010E00000EBCA0103C9CDE90001DDE9022301F0EB
:1010F00039FDCDE90401DDE9062301F03DFE04469A
:101100000D46DDE90A0100F001FDCDE902017B4950
:101110000AF1010001EBC00103C9CDE90001DDE9DD
:10112000022301F01FFDCDE90601DDE90A0101F00E
:1011300017FACDE90201714800EBCA0003C8CDE9F6
:101140000001DDE9022301F00DFDCDE90401DDE937
:10115000062301F05DFA06460F46684800EBCA0018
:1011600030C066490AF1010001EBC000C0C0BBF10C
:10117000290F1AD2DFE80BF019151A1F24292E3374
:10118000383D42474C51565B60656A6F74797E8387
:10119000888D92979CA1A6ABB0B5C0BFBEBDBCBBAD
:1011A000BA00574830C05748C0C050E1564830C018
:1011B0005648C0C04BE1564830C05648C0C046E112
:1011C000554830C05548C0C041E1554830C0554829
:1011D000C0C03CE1544830C05448C0C037E1544816
:1011E00030C05448C0C032E1534830C05348C0C03A
:1011F0002DE1534830C05348C0C028E1524830C0A8
:101200005248C0C023E1524830C05248C0C01EE11D
:10121000514830C05148C0C019E1514830C0514810
:10122000C0C014E1504830C05048C0C00FE1504821
:1012300030C05048C0C00AE14F4830C04F48C0C01D
:1012400005E14F4830C04F48C0C000E14E4830C0B3
:101250004E48C0C0FBE04E4830C04E48C0C0F6E02B
:101260004D4830C04D48C0C0F1E04D4830C04D48F9
:10127000C0C0ECE04C4830C04C48C0C0E7E04C482F
:1012800030C04C48C0C0E2E04B4830C04B48C0C002
:10129000DDE04B4830C04B48C0C0D8E04A4830C0C1
:1012A0004A48C0C0D3E04A4830C04A48C0C0CEE037
:1012B000494830C04948C0C0C9E0494830C04948E1
:1012C000C0C0C4E0484830C04848C0C0BFE048483B
:1012D00030C04848C0C0BAE0474830C04748C0C0E6
:1012E000B5E0474830C04748C0C0B0E0AAE0A4E03D
:1012F0009EE098E092E08CE086E000000000002094
:10130000E8030020F0030020F80300200004002080
:1013100008040020100400201804002020040020ED
:10132000280400203004002038040020400400205D
:1013300048040020500400205804002060040020CD
:10134000680400207004002078040020800400203D
:10135000880400209004002098040020A0040020AD
:10136000A8040020B0040020B8040020C00400201D
:10137000C8040020D0040020D8040020E00400208D
:10138000E8040020F0040020F804002000050020FC
:101390000805002010050020180500202005002069
:1013A00028050020300500203805002040050020D9
:1013B0004805002050050020580500206005002049
:1013C00068050020700500207805002080050020B9
:1013D000880500209005002098050020A005002029
:1013E000A8050020B0050020B8050020C005002099
:1013F000C8050020D0050020D8050020E005002009
:10140000E8050020F0050020174830C01748C0C08C
:101410001DE0174830C01748C0C018E0164830C05B
:101420001648C0C013E0164830C01648C0C00EE0D1
:10143000154830C01548C0C009E0154830C01548EF
:10144000C0C004E0144830C01448C0C000BF00BF92
:101450000AF1030A0BF1010B1E98401C83457FF72C
:1014600055AD12B0BDE8F09FF80500200006002041
:101470000806002010060020180600202006002084
:1014800028060020300600203806002040060020F4
:101490004806002050060020580600206006002064
:1014A000490050EAC12018BF04204A0D18BF40F07F
:1014B000010040F2FF72B2EB515F08BF40F0020042
:1014C000012808BF052070472DE9F74F144696B054
:1014D0000021C4E902111799089121F00045CA4979
:1014E0008D4206DC1799C4E9000119B00020BDE85F
:1014F000F08FC649DFF818A3A9423CDD0899C54E14
:101500000029C54FC54A1799534619DD01F034FC2F
:10151000554506D0C24AC34B01F02EFCC4E9000178
:101520000AE04FF0D352BF4B01F026FC32463B4657
:1015300001F022FCC4E9000119B00120BDE8F08FE0
:1015400001F066F8554506D0B54AB64B01F060F893
:10155000C4E900010AE04FF0D352B24B01F058F851
:1015600032463B4601F054F8C4E9000119B04FF08F
:10157000FF30BDE8F08FAC49A942179978DB21F024
:1015800000488346A94AAA4B414601F0EBFA0022E3
:10159000A84B01F03DF801F04FFA099001F07BFAF9
:1015A00006460F469D4A534601F0DCFA5A4643462A
:1015B00001F0D6FB80468A46994A9A4B3046394616
:1015C00001F0D0FA2A0D01250B924246534601F054
:1015D000C7FB032DC4E9000139D00B98C1F30A51B0
:1015E000401A05EB45111139814230DA9248C34661
:1015F000784400EB0510CDF81CA00C90D0E9002336
:101600003046394601F0AEFACDE9020102460B46FA
:101610005846079901F0B0FB80468A4602460B46C1
:101620005846079901F0A8FBDDE9022301F0A4FB6D
:1016300083460C9803913946D0E90223304601F0E5
:1016400091FA5A46039B01F097FB6D1CBDE7089881
:101650000028A2BF099819B0BDE8F08F616881F039
:1016600000416160099819B04042BDE8F08FFFE782
:10167000C1F3130141F480110E911799C1F30A517E
:10168000A1F2F532511102F01F08C8F120021292A6
:1016900000220C920D92694A7A4402EB810101F119
:1016A000140C0DA95FF00607DCF80020DCF80450EC
:1016B00002FA08F3129AD1F800A025FA02F21A43AE
:1016C0000E9BA2FB0356A2FB00329A4415449A4596
:1016D00034BF4FF0010B4FF0000B51F8043C05EB09
:1016E0000B0E7344954234BF012200221644BBF115
:1016F000000F02D0AB4202D903E0AB4201D201227B
:1017000000E0002241F808A93244E1E801237F1EED
:10171000ACF1040CC8D10898DDE90A6500F100506D
:10172000800F11900898099F800001F0B4F980465D
:101730008A46384601F0C6F96FF01D0201F038FC08
:1017400007463046059101F0BDF96FF03D0201F00A
:101750002FFCCDE90310284601F0B4F96FF05D02CB
:1017600001F026FC064602460B460191DDE9031016
:1017700000F04EFF3A46059B00F04AFF42465346B2
:1017800000F046FF00200D4683464246534601F0D6
:10179000F3FA3A46059B01F0EFFADDE9033201F076
:1017A000EBFA3246019B01F0DBFADFF89880244A1D
:1017B000434601F0D7F906460F46234A234B5846C5
:1017C000294601F0CFF932463B4600F021FF0F4693
:1017D00006464FF0A84243465846294601F0C2F952
:1017E00032463B4600F014FF179A12F0004F04D027
:1017F000119A81F0004152421192C4E900011198FE
:1018000019B0BDE8F08F0000FB21E93F7CD9024010
:10181000FB21F93F7370032E8A19A33B000040544B
:101820003163621A61B4D03DFB21394183C8C96D6F
:10183000305FE43F0000E03F7C1A0000041A000023
:10184000182D4454FB21F93D3326A611460B113CBB
:101850002DE9FF4D21F0004807460C46B8F1795FAD
:1018600008DA01F0E9F8002801BF0020324904B08D
:10187000BDE8F08D3A4623461046194601F072F94C
:10188000054602462D480E460B460621784400F0D8
:101890005DF82A46334601F065F9DDE90223824608
:1018A0008B463846214601F05DF904460F46524604
:1018B0005B462846314601F055F922463B4601F089
:1018C0005BFA07468A464FF0FF322846314601F060
:1018D0006FFB1B4A90450ADA3A46534601F04CFA30
:1018E00004B00022BDE8F04D134B01F039BA154A9F
:1018F0004245A8BFA8F500154FF00004B8BF124D2F
:1019000022462B4601F038FA0646884622462B46E8
:101910000020094901F030FA04460D463A46534684
:101920003046414601F028FA04B022462B46BDE875
:10193000F04D01F015BA00000000F03FB0170000B4
:101940003333D33F0000E93F0000D23F2DE9F0419F
:101950004F1E00EBC7010446D1E9000115461E46A3
:1019600037F006020DD02A46334601F0FBF87F1E01
:1019700004EBC703D3E9002300F04AFE37F0060268
:10198000F1D1022F25D0042F13D0062F18BFBDE8A8
:10199000F0812A46334601F0E5F8D4E90A2300F045
:1019A00037FE2A46334601F0DDF8D4E9082300F07B
:1019B0002FFE2A46334601F0D5F8D4E9062300F07D
:1019C00027FE2A46334601F0CDF8D4E9042300F07F
:1019D0001FFE2A46334601F0C5F8D4E9022300F081
:1019E00017FE2A46334601F0BDF8D4E90023BDE8CE
:1019F000F04100F00DBE00002DE9FF4D054621F03D
:101A0000004084B00C46B0F1795F0BDA2846FFF74E
:101A100047FD042808BF00F065F8284608B02146B5
:101A2000BDE8F08D2A460B46104601F09BF80646AD
:101A30000F462A46234601F095F8804626488A46F6
:101A400032463B4605217844FFF780FF83461098D5
:101A5000029160B3214A224B4046514601F082F880
:101A6000CDE900015A4640465146029B01F07AF802
:101A700082468846DDE906014FF0FF3201F098FA10
:101A80005246434601F078F932463B4601F06AF887
:101A9000DDE9062301F070F9DDE9002301F06CF9BE
:101AA00008B02A462346BDE8F04D01F059B90B466F
:101AB0005A463046394601F055F8084A084B00F0BE
:101AC000A7FD4246534601F04DF808B02A4623468A
:101AD000BDE8F04D00F09CBDEE160000495555558F
:101AE0005555C5BF024A0020110701F061BA000038
:101AF00001FDFFFF38B504464FF4A073F02200212A
:101B00000846009400F0F6FC38BD000000B5284BF4
:101B100021F0004287B09A42DCBF0022134631DD3B
:101B2000244B9A420DD168B94FF00100FEF7A6FB95
:101B3000002207B01346104611465DF804EB00F092
:101B400023BE06DB07B04FF001025DF804EB01F0A5
:101B50002FBA02AAFFF7B8FC10F0030104BF0DF181
:101B6000080C9CE80F000DD0012001290ED002299D
:101B700014D00DF1080C00909CE80F00FFF73CFF1B
:101B800007B000BDFFF764FE07B000BD0DF1080C03
:101B900000909CE80F00FFF72FFF05E00DF1080C07
:101BA0009CE80F00FFF754FE07B081F0004100BD34
:101BB000FB21E93F0000F07F002000E0401C0249CB
:101BC0008842FBDB70470000A086010001480078D6
:101BD00070470000C00600200EB5FEF731FD4FF63D
:101BE000FF70FFF787FFA4E00021524A11605160A7
:101BF0001CE014205049029050480A46504BCDE951
:101C0000001008461946FFF76FF9002000F0A4F80D
:101C1000FFF7D2FF4FF6FF7000F09EF80022494B0D
:101C2000444903C900F0F4FC424A03C20022464B77
:101C3000404903C900F05AFFDBD300213D4A11603F
:101C400051601CE0142002903B48404902463C4B46
:101C5000CDE900011946FFF747F94FF4004000F0C5
:101C60007BF8FFF7A9FF4FF6FF7000F075F8002230
:101C7000344B304903C900F0CBFC2E4A03C200228A
:101C8000314B2C4903C900F031FFDBD30020294A36
:101C9000106050601DE01420274902902C480A462D
:101CA000274BCDE9001008461946FFF71DF94FF400
:101CB000806000F051F8FFF77FFF4FF6FF7000F0F3
:101CC0004BF800221F4B1B4903C900F0A1FC194A25
:101CD00003C200221C4B174903C900F007FFDAD3E7
:101CE0000021144A116051601CE014200021029070
:101CF0001848114A124BCDE9001010461946FFF75B
:101D0000F3F8102000F028F8FFF756FF4FF6FF70A9
:101D100000F022F800220B4B064903C900F078FCC2
:101D2000044A03C20022084B024903C900F0DEFE48
:101D3000DBD359E7680600209A9999999999993FB8
:101D40009999893F0000F03F000034409999A93FDC
:101D50009999B93F0000E03F01B586B0FE4903C93B
:101D600000F06AFEFD49059003C900F065FEFC49DC
:101D7000049003C900F060FEFA49039003C900F023
:101D80005BFE02900698009002A80FC8FEF7DEFEE8
:101D9000F54903C900F050FEF449059003C900F06D
:101DA0004BFEED49049003C900F046FEEB49039059
:101DB00003C900F041FE02900698009002A80FC8E7
:101DC000FEF7C4FEEA4903C900F036FEE949059072
:101DD00003C900F031FEE449049003C900F02CFE71
:101DE000E249039003C900F027FE02900698009094
:101DF00002A80FC8FEF7AAFEDF4903C900F01CFEC7
:101E0000DE49059003C900F017FED949049003C9C3
:101E100000F012FED749039003C900F00DFE0290B6
:101E20000698009002A80FC8FEF790FED44903C997
:101E300000F002FED349059003C900F0FDFDCE4934
:101E4000049003C900F0F8FDCC49039003C900F0E9
:101E5000F3FD02900698009002A80FC8FEF776FEE8
:101E6000C94903C900F0E8FDC849059003C900F05D
:101E7000E3FDC349049003C900F0DEFDC1490390AE
:101E800003C900F0D9FD02900698009002A80FC87F
:101E9000FEF75CFEBE4903C900F0CEFDBD490590CA
:101EA00003C900F0C9FDB849049003C900F0C4FD9E
:101EB000B649039003C900F0BFFD02900698009058
:101EC00002A80FC8FEF742FEB34903C900F0B4FDF3
:101ED000B249059003C900F0AFFDAD49049003C9B4
:101EE00000F0AAFDAB49039003C900F0A5FD0290E4
:101EF0000698009002A80FC8FEF728FEA84903C95B
:101F000000F09AFDA749059003C900F095FDA2498C
:101F1000049003C900F090FDA049039003C900F0AC
:101F20008BFD02900698009002A80FC8FEF70EFEE7
:101F30008B4903C900F080FD8A49059003C900F070
:101F40007BFD9749049003C900F076FD9549039005
:101F500003C900F071FD02900698009002A80FC816
:101F6000FEF7F4FD904903C900F066FD8F49059026
:101F700003C900F061FD8E49049003C900F05CFDC7
:101F80008C49039003C900F057FD02900698009019
:101F900002A80FC8FEF7DAFD874903C900F04CFD1F
:101FA0008649059003C900F047FD7F49049003C9A5
:101FB00000F042FD7D49039003C900F03DFD029011
:101FC0000698009002A80FC8FEF7C0FD7C4903C91F
:101FD00000F032FD7B49059003C900F02DFD7649E4
:101FE000049003C900F028FD7449039003C900F070
:101FF00023FD02900698009002A80FC8FEF7A6FDE8
:10200000714903C900F018FD7049059003C900F03B
:1020100013FD6B49049003C900F00EFD694903905C
:1020200003C900F009FD02900698009002A80FC8AD
:10203000FEF78CFD664903C900F0FEFC654905907A
:1020400003C900F0F9FC6049049003C900F0F4FCF6
:102050005E49039003C900F0EFFC029006980090DF
:1020600002A80FC8FEF772FD5B4903C900F0E4FC4B
:102070005A49059003C900F0DFFC5549049003C993
:1020800000F0DAFC5349039003C900F0D5FC02903C
:102090000698009002A80FC8FEF758FD504903C9E2
:1020A00000F0CAFC4F49059003C900F0C5FC4A493D
:1020B000049003C900F0C0FC4849039003C900F034
:1020C000BBFC02900698009002A80FC8FEF73EFDE8
:1020D000454903C900F0B0FC4449059003C900F02C
:1020E000ABFC3F49049003C900F0A6FC3D490390B6
:1020F00003C900F0A1FC02900698009002A80FC846
:10210000FEF724FD3A4903C900F096FC39490590D1
:1021100003C900F091FC3449049003C900F08CFC21
:102120003249039003C900F087FC029006980090A2
:1021300002A80FC8FEF70AFD1D4903C900F07CFC88
:102140001C49059003C900F077FC2949049003C994
:1021500000F072FC27494FE000040020F803002043
:10216000F0030020E80300201004002008040020F1
:10217000200400201804002030040020280400203F
:1021800040040020380400205004002048040020AF
:10219000600400205804002070040020680400201F
:1021A0008004002078040020A0040020980400206F
:1021B0009004002088040020B0040020A80400201F
:1021C000C0040020B8040020D0040020C80400206F
:1021D000E0040020D8040020F0040020E8040020DF
:1021E00000050020F804002010050020080500204C
:1021F0002005002018050020039003C900F01CFCF6
:1022000002900698009002A80FC8FEF79FFC834931
:1022100003C900F011FC8249059003C900F00CFCD1
:102220008049049003C900F007FC7F49039003C96B
:1022300000F002FC02900698009002A80FC8FEF77A
:1022400085FC7A4903C900F0F7FB7949059003C979
:1022500000F0F2FB7749049003C900F0EDFB7649EA
:10226000039003C900F0E8FB02900698009002A8D2
:102270000FC8FEF76BFC714903C900F0DDFB704924
:10228000059003C900F0D8FB6E49049003C900F023
:10229000D3FB6D49039003C900F0CEFB0290069872
:1022A000009002A80FC8FEF751FC684903C900F06E
:1022B000C3FB6749059003C900F0BEFB6549049064
:1022C00003C900F0B9FB6449039003C900F0B4FBF3
:1022D00002900698009002A80FC8FEF737FC5F49ED
:1022E00003C900F0A9FB5E49059003C900F0A4FBF7
:1022F0005C49049003C900F09FFB5B49039003C94C
:1023000000F09AFB02900698009002A80FC8FEF712
:102310001DFC564903C900F08FFB5549059003C9C0
:1023200000F08AFB5349049003C900F085FB524931
:10233000039003C900F080FB02900698009002A869
:102340000FC8FEF703FC4D4903C900F075FB4C496B
:10235000059003C900F070FB4A49049003C900F0DE
:102360006BFB4949039003C900F066FB0290069895
:10237000009002A80FC8FEF7E9FB444903C900F02A
:102380005BFB4349059003C900F056FB41490490AB
:1023900003C900F051FB4049039003C900F04CFB16
:1023A00002900698009002A80FC8FEF7CFFB3B49A9
:1023B00003C900F041FB3A49059003C900F03CFB1A
:1023C0003849049003C900F037FB3749039003C92B
:1023D00000F032FB02900698009002A80FC8FEF7AA
:1023E000B5FB324903C900F027FB3149059003C909
:1023F00000F022FB2F49049003C900F01DFB2E4979
:10240000039003C900F018FB02900698009002A800
:102410000FC8FEF79BFB07B000BD0000F0030020D3
:10242000E80300209004002088040020000400201D
:10243000F8030020A00400209804002010040020CD
:1024400008040020B0040020A8040020200400207C
:1024500018040020C0040020B8040020300400202C
:1024600028040020D0040020C804002040040020DC
:1024700038040020E0040020D8040020500400208C
:1024800048040020F0040020E8040020600400203C
:102490005804002000050020F804002070040020EB
:1024A000680400201005002008050020800400209A
:1024B0007804002020050020180500202DE9F041B7
:1024C00004460D4616462746A8460948007818B91E
:1024D000444640F23F10C51BA9B2A0B2FDF70FFF62
:1024E0002C20FDF723FF3046FDF7C4FFBDE8F08147
:1024F000C00600202DE9FC5F80460E4614461F46AC
:10250000C246B34601940097FFF760FB40B9D84636
:1025100040F23F10A0EB0A00001B86B2009C019F16
:10252000002512E0701981B24046FDF7E8FE2C202C
:10253000FDF7FCFE4FF0000904E00C98FDF79AFF50
:1025400009F10109A145F8D36D1CBD42EAD3BDE8EC
:10255000FC9F0146002901DD01207047C817FCE7F8
:1025600000B5294B21F0004287B09A4203DC0022DB
:102570001346009233E0254B9A420DD168B94FF0D3
:102580000100FDF77BFE002207B0134610461146FE
:102590005DF804EB00F0F8B806DB07B04FF001027D
:1025A0005DF804EB00F004BD02AAFEF78DFF10F009
:1025B00003014FF001000DD0012914D002291AD0D7
:1025C0000DF1080C9CE80F00FFF742F907B081F00D
:1025D000004100BD0DF1080C00909CE80F00FFF7D2
:1025E0000BFA07B000BD0DF1080C9CE80F00FFF7D7
:1025F0002FF907B000BD0DF1080C00909CE80F000A
:10260000FFF7FAF9E2E70000FB21E93F0000F07F65
:1026100010B591EA030F48BF83F0004300F1B48383
:10262000841A71EB030C05D2121943EB0C03001B47
:1026300061EB0C01DFF824E14FEA1154A4EB135CC9
:102640001EEA430F18BF9EEA445F73D023EA0E03CD
:10265000DCF1200E21EA045143F4801332D322FA34
:102660000CFE10EB0E0023FA0CFE41EB0E01CCF138
:10267000200E03FA0EFE10EB0E0051F10001B1F531
:10268000801FCCF1200E32D201EB045112FA0EF26F
:10269000BDE8104058BF7047401C38BF5FEA420297
:1026A00018BF7047002814BF20F0010041F100015D
:1026B0004FEA410313F5001F38BF7047A1F1C04135
:1026C00000F048BB012A43EB0302ACF1200CDCF123
:1026D0001F0E32BF4FF0000E23FA0CF310EB030075
:1026E00041EB0451B4EB115FD0D0A1EB045101F5E3
:1026F000801149085FEA300001EB04510ED350F11C
:10270000000038BF12FA0EFE08D1BDE81040C9E73C
:10271000401C38BF5FEA4202CAD1C3E7BDE810409F
:102720004FEA410313F5001F38BF7047A1F1C041C4
:1027300000F010BB9EEA445F08D011EA5E0FBDE8CE
:10274000104004BF01F0004100207047BDE8104078
:1027500070B500F0B1FA00BF64FBBE3E0000E0FFC0
:1027600002494FF0000000F0F1BB00BF0000F87F0D
:10277000491058BFC1F140415B1058BFC3F14043FD
:102780008B42EFF3008070472DE9C04130B4DFF891
:10279000A0C23CEA111418BF3CEA131400F0EC800C
:1027A00081EA03051CEA111444EAD57418BF1CEA37
:1027B000131500F0C780A4EB05044FF0004545EA6F
:1027C000C12145EAC32341EA505143EA525304F17F
:1027D0007F74994204F500344FEAC0204FEAC222C8
:1027E00008BF904200F09C804FEA13650FF240163C
:1027F000765D4FEA134506FB05F7C7F1807706FBC8
:1028000007F74FEAD737A7FB03687642C8F5803849
:10281000A7FB06CE38BFA8F1010807FB08E64FF07A
:10282000000EA6FB028CE6FB03CEDCF1000CCEF121
:10283000004E38BFAEF1010EA6FB0C584FF000075A
:102840004FF00005E6FB0E87A1FB08C6A0FB07CEF4
:1028500016EB0E0645F10005E1FB076515F1E04EAC
:102860007EBFA4F580345FEA46066D4116F180070D
:1028700045F100054FEA17274FEA066647EA056764
:10288000A6F1DE46B6F1805F4FEA15251FD938461E
:1028900024F0010C05EBC471BCF1FE6F01EB0C11CF
:1028A00002D8F0BCBDE8008124425CBF01F5801E67
:1028B0009EEAC47F02D4F0BCBDE80081244238D433
:1028C000F0BCA1F1C041BDE8004100F043BA4FEABD
:1028D000D22242EA43524FEAD323A7FB02864FEAB1
:1028E000D02040EA415007FB03661EEA0E0F4FEA74
:1028F000D12105FB026658BFA6EB0056B6EB005689
:102900004FEA520E4EEAC37E18EB0E0E56EB530EF4
:10291000BDD518EB02085E417F1C55F10005B6E7F6
:102920004FF480154FF000074FF000064FF00008FD
:10293000ADE7F0BC4FF0000001F1C04101F00041F3
:10294000BDE8008111EA0C1F0CEA131500D00CE061
:1029500013EA0C1F00F025804FF00000F0BC81EA64
:10296000030101F00041BDE80081F0BC81EA0301F0
:10297000BDE8004100F0EEB9F0BCBDE8004170B523
:1029800000F09AF9097EFC3E00F007B881EA0301E5
:102990004FF0000001F00041704781EA030100F0B0
:1029A000D9B9F0BC4FF000002249BDE800417047A2
:1029B000FFFDFBF9F7F5F4F2F0EEEDEBE9E8E6E404
:1029C000E3E1E0DEDDDBDAD8D7D5D4D3D1D0CFCD8B
:1029D000CCCBCAC8C7C6C5C4C2C1C0BFBEBDBCBBC4
:1029E000BAB9B8B7B6B5B4B3B2B1B0AFAEADACABBF
:1029F000AAA9A8A8A7A6A5A4A3A3A2A1A09F9F9E99
:102A00009D9C9C9B9A99999897979695959493934A
:102A1000929191908F8F8E8E8D8C8C8B8B8A8989E1
:102A20008888878786858584848383828281818064
:102A30000000FF070000F87F4FEA41034FEA5353BD
:102A4000A3F58063D3F11E03C8BFD3F1210C0CDDC5
:102A50004FF0004242EAC12242EA505232FA03FCED
:102A60008CEAE17CACEBE1707047102BC4BF002016
:102A7000704703F5787CBCF1FF3F04D06FF0004253
:102A800082EA2100704770B500F016F9499224805F
:102A900000207047F2E710F0004248BF4042B0FA11
:102AA00080F310FA03F10AD0C3F11D0303F580632C
:102AB0004FEA415002EB035202EBD12170474FF035
:102AC00000007047B0FA80F310FA03F10AD0C3F1A6
:102AD0001D0303F580634FEA41504FEA035202EBB6
:102AE000D12170474FF000007047000051EA030CFD
:102AF00017D41CF5801F58BFBCF5801F00F106805D
:102B0000994218BF704708BF9042704707D711F528
:102B1000801F58BF13F5801F19D49942704789420E
:102B200070471CF5801F08D5BCF5801FF7D58B4278
:102B300018BF704708BF824270474FF4001C1CEB5F
:102B4000410F38BF1CEB430F01D28B42704770B569
:102B500000F0B2F8922449004FF000514FF080533A
:102B6000FFF706BEDFF848C170B51CEA111E1EBF94
:102B70001CEA13159EEA0C0F95EA0C0F00F06F800B
:102B800081EA030423EA4C134EEAD47E21EA4C1175
:102B900041F4801143F48013AE44A1FB024CA0FB2E
:102BA0000365AEF17F7E361955EB0C05A1FB034C96
:102BB0004CF10003A0FB021C16EB0C06654153F11F
:102BC0000003094218BF46F0010613F4007F0BD141
:102BD0004FEA03314FEA0530340341EA155140EA28
:102BE00016506FF003020AE04FEAC3214FEAC520F6
:102BF000F40241EA555140EA56506FF0020202EBEE
:102C00002E4201EB025585EACE710AD05FEA440CF0
:102C100018BF24F0004450F1000041F1000120EA07
:102C2000D47040F2FE7C624500D270BDA84214BF51
:102C30004FF080444FF04044002E08BF0024BEF106
:102C4000806FA8BFA1F1C041BDE8704080F28280D2
:102C50004FF0000001F1C04101F0004170479EEAD1
:102C60000C0F0CEA131518BF95EA0C0F06D04FF0A5
:102C7000000081EA030E0EF0004170BD00F01CF868
:102C80008900013E00F007B800F009B84FEA430C94
:102C90005FEA5C5C08D081EA030100F05BB84FEAB0
:102CA000410C5FEA5C5CF6D14FF0000001497047CF
:102CB0000000FF070000F87F0EF1020E2EF0030E59
:102CC0005EF8046B364205D4012A43EB030515F583
:102CD000001F12D8012841EB010C1CF5001F0CD875
:102CE0000ED14FEAD17C15F5001F0CEB4C0C0CF10A
:102CF000020C08BF4CEBD37C04E04FF0080C01E061
:102D00004FEAD37C0CEB4C0526FA05F606F00706D5
:102D1000B6F1040C06D20EEB860CBDE870404CF008
:102D2000010C6047DFE80CF0090B02024FF0004194
:102D30004FF00000A1F5002170BD19461046012892
:102D400051EB010418BFD4F5001484BF002001F03A
:102D5000004170BD0808A0F500114FEA310170472D
:102D600091EA030F10B581F000413FF559AC83F0B3
:102D7000004300F009B8000010B591EA030F48BF06
:102D800083F000433FF54CAC841A71EB030C07D27F
:102D900012198CF0004C43EB0C03001B61EB0C018F
:102DA000DFF8A4E14FEA1154A4EB135C1EEA430FD1
:102DB00018BF9EEA445F00F0B08023EA6E035242DF
:102DC00021EA0451C3EB6E0338BF5B1EDCF1200E19
:102DD00025D322FA0CFE10EB0E0043FA0CFE41EB59
:102DE0000E01CCF1200E03FA0EFE10EB0E0051F195
:102DF0000001CCF1200E29D412FA0EF201EB04519D
:102E0000BDE8104058BF7047401C1CBFB2F1004FD6
:102E1000704700280CBF491C20F00100704712EBDE
:102E2000020E43EB030218BF4FF0010E4EEA4202BE
:102E3000ACF1200CDCF11E0E54D943FA0CFE10EB61
:102E40000E0051F1FF31CCF11E0ED5D50EF1010E61
:102E500012FA0EFE404141EB010101EB445C5FEAD6
:102E60005C5C10D910EBDE7001EB045138BFBEF191
:102E7000004FBDE8104018BF704700280CBF491C28
:102E800020F00100704730D24FEAD42C11F5001128
:102E900024F400641BD0B1FA81F20B3AA41AA41EE8
:102EA000D2F12003914030FA03F31943904001EB33
:102EB000CC71002C01EB0451BDE81040A8BF704755
:102EC00001F1C0414FF0000001F000417047B0FA3D
:102ED00080F310FA03F100D110BDE41A173C480545
:102EE000C90AE4E701EB045110BD491001EB04519C
:102EF000BDE810404FEA300002E04FF0000170479B
:102F00004A0008BF0042F8D0B2F5001F28BF704742
:102F100001F000414FF0000070479EEA445F07D087
:102F200011EA5E0FBDE8104004BF00210020704789
:102F3000BDE8104070B5FFF7BFFE00BF40DFF63EB2
:102F400083F00041104670470000E0FF0CF00F03D3
:102F5000092B08BF082000F059800A2B0BD0082B42
:102F600018BF704708BF1CF0400F0AD04FF0000098
:102F70004FF0000170471CF0400F18BF4FF00040A9
:102F800070471CF0100F08D020F0704300F07F4213
:102F900042EAD3014FEA4370704700F0604021F0ED
:102FA0007F4242EA000201F07F4040EA72707047BF
:102FB0004FF0FF0C4CF4E06C1CEA11531CBF9CEA70
:102FC000030C9445C2BFDA4201EB02517047002B5B
:102FD0000DD0BCF1000F0FD0002A01F00041A4BFBA
:102FE00041F0E04141F07F614FF00000704701F097
:102FF00000414FF00000704750EA01334FF09B0C46
:1030000018BF4CF0806C7FF4ABAB70471CF4801F92
:1030100011D01CF4E02F03D06FEACC314900704787
:103020004FF04050EFF3008222F0704242EA00027B
:1030300082F3008870474FF00000704700000000E6
:103040004C5555555555A53F7751C1166CC156BFC6
:103050009015CB19A001FA3EAD529C804F7E92BED6
:10306000C4B1B4BD9EEE213ED43888BEE9FAA8BDF5
:1030700000004054FB21F93F3163621A61B4D03D36
:103080000000601A61B4D03D7370032E8A19A33B0F
:103090000000002E8A19A33BC14920259A837B3961
:1030A00000000000000000006E83F9A22915444EC4
:1030B000D15727FCC0DD34F5999562DB4190433C44
:1030C000AB6351FE61C5BBDE3A6E24B7E0D24D4220
:1030D000EA2E49061C92D1091CEB1DFE3EA729B120
:1030E000F53582E88444BB2E26709CE9417E5FB4AE
:1030F00039D69139F43953838B5F849C3B28F9BDD1
:10310000FF97F81F0F9805DE8B112FEF1F6D0A5ADE
:10311000CF7E366DB709CB27663F464F2DEA5F9EBF
:10312000C7BA27757BF1E5EBF739073DEA92528A7A
:10313000B15FFB6B085D8D1FA6F810111111813F67
:10314000D561C119A0012ABF7DFEB157E31DC73E5D
:10315000EB9C2B8AE6E55ABE7CD5CF5A3AD9E53DA1
:103160008031000800000020C40600008C01000827
:10317000EC310008C406002064060000E8010008E5
:10318000616334C05A54085B244018590809161862
:10319000693869180A1E4E185908F960E9186990CB
:1031A000D9185A4E18E9487918E9A8091D1879D88C
:1031B000D95809161879485908F9F0E91869A8E9A1
:1031C00060E918E9F06948E9F0E918E9A809151873
:1031D00001FF01FF01FF01FF019E321832D7327853
:0C31E000322032A0032A1F01292B00001E
:040000050800022DC0
:00000001FF
